{
  "_format": "hh-sol-artifact-1",
  "contractName": "Governance",
  "sourceName": "contracts/Governance.sol",
  "abi": [
    {
      "inputs": [],
      "stateMutability": "nonpayable",
      "type": "constructor"
    },
    {
      "inputs": [
        {
          "internalType": "address",
          "name": "zkSyncAddress",
          "type": "address"
        },
        {
          "internalType": "address",
          "name": "contractAddr",
          "type": "address"
        },
        {
          "internalType": "bytes",
          "name": "data",
          "type": "bytes"
        },
        {
          "internalType": "uint64",
          "name": "ergsLimit",
          "type": "uint64"
        }
      ],
      "name": "callZkSync",
      "outputs": [],
      "stateMutability": "payable",
      "type": "function"
    },
    {
      "inputs": [],
      "name": "governor",
      "outputs": [
        {
          "internalType": "address",
          "name": "",
          "type": "address"
        }
      ],
      "stateMutability": "view",
      "type": "function"
    }
  ],
  "bytecode": "0x608060405234801561001057600080fd5b50600080546001600160a01b03191633179055610428806100326000396000f3fe6080604052600436106100295760003560e01c806303b0c4f91461002e5780630c340a2414610043575b600080fd5b61004161003c3660046101d7565b61007f565b005b34801561004f57600080fd5b50600054610063906001600160a01b031681565b6040516001600160a01b03909116815260200160405180910390f35b6000546001600160a01b031633146100dd5760405162461bcd60e51b815260206004820152601860248201527f4f6e6c7920676f7665726e6f7220697320616c6c6f7765640000000000000000604482015260640160405180910390fd5b836001600160a01b03811663b4848df534868686600060405190808252806020026020018201604052801561012657816020015b60608152602001906001900390816101115790505b5060006040518763ffffffff1660e01b8152600401610149959493929190610339565b6020604051808303818588803b15801561016257600080fd5b505af1158015610176573d6000803e3d6000fd5b50505050506040513d601f19601f8201168201806040525081019061019b91906102b4565b505050505050565b80356001600160a01b03811681146101ba57600080fd5b919050565b803567ffffffffffffffff811681146101ba57600080fd5b600080600080608085870312156101ec578384fd5b6101f5856101a3565b9350610203602086016101a3565b9250604085013567ffffffffffffffff8082111561021f578384fd5b818701915087601f830112610232578384fd5b813581811115610244576102446103dc565b604051601f8201601f19908116603f0116810190838211818310171561026c5761026c6103dc565b816040528281528a6020848701011115610284578687fd5b826020860160208301379182016020019590955293506102a9915050606086016101bf565b905092959194509250565b6000602082840312156102c5578081fd5b5051919050565b60008151808452815b818110156102f1576020818501810151868301820152016102d5565b818111156103025782602083870101525b50601f01601f19169290920160200192915050565b6003811061033557634e487b7160e01b600052602160045260246000fd5b9052565b6001600160a01b038616815260a0602080830182905260009161035e908401886102cc565b67ffffffffffffffff871660408501528381036060850152855180825282820190600581901b83018401848901865b838110156103bb57601f198684030185526103a98383516102cc565b9487019492509086019060010161038d565b505080955050505050506103d26080830184610317565b9695505050505050565b634e487b7160e01b600052604160045260246000fdfea26469706673582212206a8b0837d8d6d60ebc957437875d262460633486f9bc553a1018f7cc57630cc164736f6c63430008040033",
  "linkReferences": {},
  "deployedLinkReferences": {}
}