{
  "_format": "hh-sol-artifact-1",
  "contractName": "Verifier",
  "sourceName": "@matterlabs/zksync-contracts/l1/contracts/zksync/Verifier.sol",
  "abi": [
    {
      "inputs": [
        {
          "internalType": "uint256[]",
          "name": "_recursiveInput",
          "type": "uint256[]"
        },
        {
          "internalType": "uint256[]",
          "name": "_proof",
          "type": "uint256[]"
        },
        {
          "internalType": "uint8[]",
          "name": "_vkIndexes",
          "type": "uint8[]"
        },
        {
          "internalType": "uint256[]",
          "name": "_individual_vks_inputs",
          "type": "uint256[]"
        },
        {
          "internalType": "uint256[16]",
          "name": "_subproofs_limbs",
          "type": "uint256[16]"
        }
      ],
      "name": "verifyAggregatedBlockProof",
      "outputs": [
        {
          "internalType": "bool",
          "name": "",
          "type": "bool"
        }
      ],
      "stateMutability": "view",
      "type": "function"
    },
    {
      "inputs": [
        {
          "internalType": "uint256[]",
          "name": "public_inputs",
          "type": "uint256[]"
        },
        {
          "internalType": "uint256[]",
          "name": "serialized_proof",
          "type": "uint256[]"
        },
        {
          "components": [
            {
              "internalType": "uint256",
              "name": "domain_size",
              "type": "uint256"
            },
            {
              "internalType": "uint256",
              "name": "num_inputs",
              "type": "uint256"
            },
            {
              "components": [
                {
                  "internalType": "uint256",
                  "name": "value",
                  "type": "uint256"
                }
              ],
              "internalType": "struct PairingsBn254.Fr",
              "name": "omega",
              "type": "tuple"
            },
            {
              "components": [
                {
                  "internalType": "uint256",
                  "name": "X",
                  "type": "uint256"
                },
                {
                  "internalType": "uint256",
                  "name": "Y",
                  "type": "uint256"
                }
              ],
              "internalType": "struct PairingsBn254.G1Point[7]",
              "name": "gate_setup_commitments",
              "type": "tuple[7]"
            },
            {
              "components": [
                {
                  "internalType": "uint256",
                  "name": "X",
                  "type": "uint256"
                },
                {
                  "internalType": "uint256",
                  "name": "Y",
                  "type": "uint256"
                }
              ],
              "internalType": "struct PairingsBn254.G1Point[2]",
              "name": "gate_selector_commitments",
              "type": "tuple[2]"
            },
            {
              "components": [
                {
                  "internalType": "uint256",
                  "name": "X",
                  "type": "uint256"
                },
                {
                  "internalType": "uint256",
                  "name": "Y",
                  "type": "uint256"
                }
              ],
              "internalType": "struct PairingsBn254.G1Point[4]",
              "name": "copy_permutation_commitments",
              "type": "tuple[4]"
            },
            {
              "components": [
                {
                  "internalType": "uint256",
                  "name": "value",
                  "type": "uint256"
                }
              ],
              "internalType": "struct PairingsBn254.Fr[3]",
              "name": "copy_permutation_non_residues",
              "type": "tuple[3]"
            },
            {
              "components": [
                {
                  "internalType": "uint256[2]",
                  "name": "X",
                  "type": "uint256[2]"
                },
                {
                  "internalType": "uint256[2]",
                  "name": "Y",
                  "type": "uint256[2]"
                }
              ],
              "internalType": "struct PairingsBn254.G2Point",
              "name": "g2_x",
              "type": "tuple"
            }
          ],
          "internalType": "struct Plonk4VerifierWithAccessToDNext.VerificationKey",
          "name": "vk",
          "type": "tuple"
        }
      ],
      "name": "verify_serialized_proof",
      "outputs": [
        {
          "internalType": "bool",
          "name": "",
          "type": "bool"
        }
      ],
      "stateMutability": "view",
      "type": "function"
    },
    {
      "inputs": [
        {
          "internalType": "uint256[]",
          "name": "public_inputs",
          "type": "uint256[]"
        },
        {
          "internalType": "uint256[]",
          "name": "serialized_proof",
          "type": "uint256[]"
        },
        {
          "internalType": "uint256",
          "name": "recursive_vks_root",
          "type": "uint256"
        },
        {
          "internalType": "uint8",
          "name": "max_valid_index",
          "type": "uint8"
        },
        {
          "internalType": "uint8[]",
          "name": "recursive_vks_indexes",
          "type": "uint8[]"
        },
        {
          "internalType": "uint256[]",
          "name": "individual_vks_inputs",
          "type": "uint256[]"
        },
        {
          "internalType": "uint256[16]",
          "name": "subproofs_limbs",
          "type": "uint256[16]"
        },
        {
          "components": [
            {
              "internalType": "uint256",
              "name": "domain_size",
              "type": "uint256"
            },
            {
              "internalType": "uint256",
              "name": "num_inputs",
              "type": "uint256"
            },
            {
              "components": [
                {
                  "internalType": "uint256",
                  "name": "value",
                  "type": "uint256"
                }
              ],
              "internalType": "struct PairingsBn254.Fr",
              "name": "omega",
              "type": "tuple"
            },
            {
              "components": [
                {
                  "internalType": "uint256",
                  "name": "X",
                  "type": "uint256"
                },
                {
                  "internalType": "uint256",
                  "name": "Y",
                  "type": "uint256"
                }
              ],
              "internalType": "struct PairingsBn254.G1Point[7]",
              "name": "gate_setup_commitments",
              "type": "tuple[7]"
            },
            {
              "components": [
                {
                  "internalType": "uint256",
                  "name": "X",
                  "type": "uint256"
                },
                {
                  "internalType": "uint256",
                  "name": "Y",
                  "type": "uint256"
                }
              ],
              "internalType": "struct PairingsBn254.G1Point[2]",
              "name": "gate_selector_commitments",
              "type": "tuple[2]"
            },
            {
              "components": [
                {
                  "internalType": "uint256",
                  "name": "X",
                  "type": "uint256"
                },
                {
                  "internalType": "uint256",
                  "name": "Y",
                  "type": "uint256"
                }
              ],
              "internalType": "struct PairingsBn254.G1Point[4]",
              "name": "copy_permutation_commitments",
              "type": "tuple[4]"
            },
            {
              "components": [
                {
                  "internalType": "uint256",
                  "name": "value",
                  "type": "uint256"
                }
              ],
              "internalType": "struct PairingsBn254.Fr[3]",
              "name": "copy_permutation_non_residues",
              "type": "tuple[3]"
            },
            {
              "components": [
                {
                  "internalType": "uint256[2]",
                  "name": "X",
                  "type": "uint256[2]"
                },
                {
                  "internalType": "uint256[2]",
                  "name": "Y",
                  "type": "uint256[2]"
                }
              ],
              "internalType": "struct PairingsBn254.G2Point",
              "name": "g2_x",
              "type": "tuple"
            }
          ],
          "internalType": "struct Plonk4VerifierWithAccessToDNext.VerificationKey",
          "name": "vk",
          "type": "tuple"
        }
      ],
      "name": "verify_serialized_proof_with_recursion",
      "outputs": [
        {
          "internalType": "bool",
          "name": "",
          "type": "bool"
        }
      ],
      "stateMutability": "view",
      "type": "function"
    }
  ],
  "bytecode": "0x608060405234801561001057600080fd5b50613edd806100206000396000f3fe608060405234801561001057600080fd5b50600436106100415760003560e01c80631d8a566314610046578063a830bd601461006d578063fd1bc84414610080575b600080fd5b6100596100543660046139db565b610093565b604051901515815260200160405180910390f35b61005961007b366004613921565b6100cc565b61005961008e366004613a4d565b610101565b600083518260200151146100a657600080fd5b60006100b28585610142565b905060006100c08285610693565b925050505b9392505050565b600085858585856040516020016100e7959493929190613c49565b60408051601f198184030190525250600195945050505050565b6000885182602001511461011457600080fd5b60006101208a8a610142565b9050600061013382858b8b8b8b8b6106df565b9b9a5050505050505050505050565b61014a613215565b602282511461015857600080fd5b82516001600160401b0381111561017f57634e487b7160e01b600052604160045260246000fd5b6040519080825280602002602001820160405280156101a8578160200160208202803683370190505b50815260005b8351811015610220578381815181106101d757634e487b7160e01b600052603260045260246000fd5b60200260200101518260000151828151811061020357634e487b7160e01b600052603260045260246000fd5b60209081029190910101528061021881613e20565b9150506101ae565b506000805b60048110156102da5761029284838151811061025157634e487b7160e01b600052603260045260246000fd5b6020026020010151858460016102679190613d93565b8151811061028557634e487b7160e01b600052603260045260246000fd5b60200260200101516107a4565b836020015182600481106102b657634e487b7160e01b600052603260045260246000fd5b60200201526102c6600283613d93565b9150806102d281613e20565b915050610225565b506103148382815181106102fe57634e487b7160e01b600052603260045260246000fd5b6020026020010151848360016102679190613d93565b6040830152610324600282613d93565b905060005b600481101561039d5761035584838151811061025157634e487b7160e01b600052603260045260246000fd5b8360600151826004811061037957634e487b7160e01b600052603260045260246000fd5b6020020152610389600283613d93565b91508061039581613e20565b915050610329565b5060005b6004811015610422576103da8483815181106103cd57634e487b7160e01b600052603260045260246000fd5b6020026020010151610892565b836080015182600481106103fe57634e487b7160e01b600052603260045260246000fd5b602002015261040e600183613d93565b91508061041a81613e20565b9150506103a1565b5060005b600181101561049a576104528483815181106103cd57634e487b7160e01b600052603260045260246000fd5b8360a00151826001811061047657634e487b7160e01b600052603260045260246000fd5b6020020152610486600183613d93565b91508061049281613e20565b915050610426565b5060005b6001811015610512576104ca8483815181106103cd57634e487b7160e01b600052603260045260246000fd5b8360c0015182600181106104ee57634e487b7160e01b600052603260045260246000fd5b60200201526104fe600183613d93565b91508061050a81613e20565b91505061049e565b5060005b600381101561058b576105428483815181106103cd57634e487b7160e01b600052603260045260246000fd5b836101400151826003811061056757634e487b7160e01b600052603260045260246000fd5b6020020152610577600183613d93565b91508061058381613e20565b915050610516565b506105af8382815181106103cd57634e487b7160e01b600052603260045260246000fd5b60e08301526105bf600182613d93565b90506105e48382815181106103cd57634e487b7160e01b600052603260045260246000fd5b6101008301526105f5600182613d93565b905061061a8382815181106103cd57634e487b7160e01b600052603260045260246000fd5b61012083015261062b600182613d93565b90506106508382815181106102fe57634e487b7160e01b600052603260045260246000fd5b610160830152610661600282613d93565b90506106868382815181106102fe57634e487b7160e01b600052603260045260246000fd5b6101808301525092915050565b60008060006106a285856108cd565b9092509050816106b7576000925050506106d9565b80516106d4906106c561097a565b602084015160e0880151610a3a565b925050505b92915050565b60008060006106f18888888888610b72565b91509150896000015160008151811061071a57634e487b7160e01b600052603260045260246000fd5b6020026020010151821461073e57634e487b7160e01b600052600160045260246000fd5b60008061074b8c8c6108cd565b909250905081610762576000945050505050610799565b600061076e8483610ed5565b80519091506107919061077f61097a565b83600160200201518f60e00151610a3a565b955050505050505b979650505050505050565b6040805180820190915260008082526020820152821580156107c4575081155b156107e55760405180604001604052808481526020018381525090506106d9565b600080516020613e6883398151915283106107ff57600080fd5b600080516020613e68833981519152821061081957600080fd5b6000600080516020613e6883398151915283840990506000600080516020613e688339815191528586099050600080516020613e688339815191528582099050600080516020613e6883398151915260038208905080821461087a57600080fd5b50506040805180820190915292835250602082015290565b604080516020810190915260008152600080516020613e8883398151915282106108bb57600080fd5b50604080516020810190915290815290565b60006108d761331f565b61094c6040805161010081018252600060e082018181528252825160208082018552828252808401919091528351808201855282815283850152835180820185528281526060840152835180820185528281526080840152835190810190935282529060a08201908152602001606081525090565b610957818686610fcc565b9250826109645750610973565b61096f81868661139c565b9150505b9250929050565b610982613358565b50604080516080810182527f198e9393920d483a7260bfb731fb5d25f1aa493335a9e71297e485b7aef312c28183019081527f1800deef121f1e76426a00665e5c4479674322d4f75edadd46debd5cd992f6ed6060830152815281518083019092527f090689d0585ff075ec9e99ad690c3395bc4b313370b38ef355acdadcd122975b82527f12c85ea5db8c6deb4aab71808dcb408fe3d1e7690c43d37b4ce6cc0166fa7daa60208381019190915281019190915290565b60408051600280825260608201909252600091829190816020015b6040805180820190915260008082526020820152815260200190600190039081610a555750506040805160028082526060820190925291925060009190602082015b610a9f613358565b815260200190600190039081610a975790505090508682600081518110610ad657634e487b7160e01b600052603260045260246000fd5b60200260200101819052508482600181518110610b0357634e487b7160e01b600052603260045260246000fd5b60200260200101819052508581600081518110610b3057634e487b7160e01b600052603260045260246000fd5b60200260200101819052508381600181518110610b5d57634e487b7160e01b600052603260045260246000fd5b60200260200101819052506107998282611992565b6000610b7c61331f565b8351855114610b9b57634e487b7160e01b600052600160045260246000fd5b600087604051602001610bb091815260200190565b60408051601f1981840301815291905290506000805b8751811015610c5457878181518110610bef57634e487b7160e01b600052603260045260246000fd5b602002602001015191508860ff168260ff161115610c1d57634e487b7160e01b600052600160045260246000fd5b8282604051602001610c30929190613c21565b60405160208183030381529060405292508080610c4c90613e20565b915050610bc6565b506000805b8851811015610cee57878181518110610c8257634e487b7160e01b600052603260045260246000fd5b60200260200101519150600080516020613e888339815191528210610cb757634e487b7160e01b600052600160045260246000fd5b8382604051602001610cca929190613c08565b60405160208183030381529060405293508080610ce690613e20565b915050610c59565b508286604051602001610d02929190613bca565b60405160208183030381529060405292506000600284604051610d259190613bbe565b602060405180830381855afa158015610d42573d6000803e3d6000fd5b5050506040513d601f19601f82011682018060405250810190610d659190613b33565b6001600160f81b03811696509050610e25610d8260446003613dd3565b6060890151901b610d9560446002613dd3565b60408a015160208b01518b519190921b91610db69160449190911b90613d93565b610dc09190613d93565b610dca9190613d93565b610dd660446003613dd3565b60e08a0151901b610de960446002613dd3565b60c08b015160a08c0151911b9060441b8b60045b6020020151610e0c9190613d93565b610e169190613d93565b610e209190613d93565b6107a4565b8552610ebf610e3660446003613dd3565b610160890151901b610e4a60446002613dd3565b6101408a01516101208b01516101008c01519190921b91610e719160449190911b90613d93565b610e7b9190613d93565b610e859190613d93565b610e9160446003613dd3565b6101e08a0151901b610ea560446002613dd3565b6101c08b01516101a08c0151911b9060441b8b600c610dfd565b8560016020020152505050509550959350505050565b610edd61331f565b604080516060810182526000808252602082018190529181018290529050610f0e8460005b60200201518290611d37565b610f19846001610f02565b610f24836000610f02565b610f2f836001610f02565b6000610f3a82611d57565b9050610f6e8560005b6020020151604080518082019091526000808252602080830191825283518352929092015190915290565b8352610f7b856001610f43565b60208401526000610f948286835b602002015190611dfd565b9050610fa9818560005b602002015190611e1c565b610fb582866001610f89565b9050610fc381856001610f9e565b50505092915050565b602081015182515160009114610fe157600080fd5b600182602001511015610ff357600080fd5b60408051606081018252600080825260208201819052918101829052905b836020015181101561106d5761105b8560000151828151811061104457634e487b7160e01b600052603260045260246000fd5b602002602001015183611e2790919063ffffffff16565b8061106581613e20565b915050611011565b5060005b60048110156110bf576110ad856020015182600481106110a157634e487b7160e01b600052603260045260246000fd5b60200201518390611d37565b806110b781613e20565b915050611071565b506110c981611d57565b60208601526110d781611d57565b6040808701919091528401516110ee908290611d37565b6110f781611d57565b855260005b600481101561113e5761112c856060015182600481106110a157634e487b7160e01b600052603260045260246000fd5b8061113681613e20565b9150506110fc565b5061114881611d57565b60a086015260208301516000906001600160401b0381111561117a57634e487b7160e01b600052604160045260246000fd5b6040519080825280602002602001820160405280156111a3578160200160208202803683370190505b50905060005b81518110156111f057808282815181106111d357634e487b7160e01b600052603260045260246000fd5b6020908102919091010152806111e881613e20565b9150506111a9565b5061120981856000015186604001518960a00151611eb5565b60c0870152600061121b87878761247c565b90508061122e57600093505050506100c5565b61010086015161123f908490612780565b60005b60048110156112905761127e8760800151826004811061127257634e487b7160e01b600052603260045260246000fd5b60200201518590612780565b8061128881613e20565b915050611242565b5060005b60018110156112d6576112c48760a00151826001811061127257634e487b7160e01b600052603260045260246000fd5b806112ce81613e20565b915050611294565b5060c0860151516112e8908490612780565b60005b600381101561132e5761131c876101400151826003811061127257634e487b7160e01b600052603260045260246000fd5b8061132681613e20565b9150506112eb565b5060e086015161133f908490612780565b610120860151611350908490612780565b61135983611d57565b606088015261016086015161136f908490611d37565b610180860151611380908490611d37565b61138983611d57565b6080880152506001925050509392505050565b6113a461331f565b60006113b185858561278e565b835160a08701519192506000916113c791612c36565b905060006113f7604080518082018252600080825260209182015281518083019092526001825260029082015290565b905060006114056001610892565b905060006114318860600151600060048110610f4357634e487b7160e01b600052603260045260246000fd5b9050600061143f6001610892565b905060015b600481101561149d576114578287612cb5565b61147f828b606001518360048110610f8957634e487b7160e01b600052603260045260246000fd5b945061148b8386611e1c565b8061149581613e20565b915050611444565b5060608a01516114ae908490612cb5565b6114b88287611e1c565b60005b600481101561151a5760608b01516114d4908590612cb5565b6114fc848b602001518360048110610f8957634e487b7160e01b600052603260045260246000fd5b94506115088386611e1c565b8061151281613e20565b9150506114bb565b5060005b60018110156115675760608b0151611537908590612cb5565b60808901516115499085906000610f89565b94506115558386611e1c565b8061155f81613e20565b91505061151e565b5060005b61157760016004613df2565b8110156115d45760608b015161158e908590612cb5565b6115b6848a60a001518360048110610f8957634e487b7160e01b600052603260045260246000fd5b94506115c28386611e1c565b806115cc81613e20565b91505061156b565b5060608a01516115e5908490612cb5565b8251815260808a01516115f9908290612cb5565b60408901516116139061160c9083611dfd565b8390611e1c565b60608a0151611623908490612cb5565b8251815260808a0151611637908290612cb5565b61166c818a602001516001600461164e9190613df2565b60048110610f8957634e487b7160e01b600052603260045260246000fd5b93506116788285611e1c565b6116826001610892565b925060006116a58a61010001516040805160208101909152600081529051815290565b90506116be8b6060015185612cb590919063ffffffff16565b6101208a01515182526116d18285612cb5565b6116db8183612cd4565b60005b600481101561174e5760608c01516116f7908690612cb5565b6117288b60800151826004811061171e57634e487b7160e01b600052603260045260246000fd5b6020020151518452565b6117328386612cb5565b61173c8284612cd4565b8061174681613e20565b9150506116de565b5060005b60018110156117b85760608c015161176b908690612cb5565b6117928b60c00151826001811061171e57634e487b7160e01b600052603260045260246000fd5b61179c8386612cb5565b6117a68284612cd4565b806117b081613e20565b915050611752565b5060005b60038110156118235760608c01516117d5908690612cb5565b6117fd8b6101400151826003811061171e57634e487b7160e01b600052603260045260246000fd5b6118078386612cb5565b6118118284612cd4565b8061181b81613e20565b9150506117bc565b5060608b0151611834908590612cb5565b60e08a01515182526118468285612cb5565b60808b0151611856908390612cb5565b6118608183612cd4565b60608b0151611870908590612cb5565b60a08a0151515182526118838285612cb5565b60808b0151611893908390612cb5565b61189d8183612cd4565b6118dd6118d6826118d0604080518082018252600080825260209182015281518083019092526001825260029082015290565b90611dfd565b8490612cee565b60a08b01516101608b015184916118fe916118f791611dfd565b8290611e1c565b60a08c015151835260408a0151611916908490612cb5565b60808c0151611926908490612cb5565b6101808b015161193a906118f79085611dfd565b60006119588d608001518d6101800151611dfd90919063ffffffff16565b90506119728c610160015182611e1c90919063ffffffff16565b61197b81612cf9565b908952602089015250959998505050505050505050565b600081518351146119a257600080fd5b825160006119b1826006613dd3565b90506000816001600160401b038111156119db57634e487b7160e01b600052604160045260246000fd5b604051908082528060200260200182016040528015611a04578160200160208202803683370190505b50905060005b83811015611d0357868181518110611a3257634e487b7160e01b600052603260045260246000fd5b60200260200101516000015182826006611a4c9190613dd3565b611a57906000613d93565b81518110611a7557634e487b7160e01b600052603260045260246000fd5b602002602001018181525050868181518110611aa157634e487b7160e01b600052603260045260246000fd5b60200260200101516020015182826006611abb9190613dd3565b611ac6906001613d93565b81518110611ae457634e487b7160e01b600052603260045260246000fd5b602002602001018181525050858181518110611b1057634e487b7160e01b600052603260045260246000fd5b6020908102919091010151515182611b29836006613dd3565b611b34906002613d93565b81518110611b5257634e487b7160e01b600052603260045260246000fd5b602002602001018181525050858181518110611b7e57634e487b7160e01b600052603260045260246000fd5b60209081029190910181015151015182611b99836006613dd3565b611ba4906003613d93565b81518110611bc257634e487b7160e01b600052603260045260246000fd5b602002602001018181525050858181518110611bee57634e487b7160e01b600052603260045260246000fd5b602002602001015160200151600060028110611c1a57634e487b7160e01b600052603260045260246000fd5b602002015182611c2b836006613dd3565b611c36906004613d93565b81518110611c5457634e487b7160e01b600052603260045260246000fd5b602002602001018181525050858181518110611c8057634e487b7160e01b600052603260045260246000fd5b602002602001015160200151600160028110611cac57634e487b7160e01b600052603260045260246000fd5b602002015182611cbd836006613dd3565b611cc8906005613d93565b81518110611ce657634e487b7160e01b600052603260045260246000fd5b602090810291909101015280611cfb81613e20565b915050611a0a565b50611d0c613378565b6000602082602086026020860160085afa905080611d2957600080fd5b505115159695505050505050565b611d45828260000151611e27565b611d53828260200151611e27565b5050565b60408051602081019091526000815281516020808401516040808601519051600160e11b938101939093526024830193909352604482015260e09190911b6001600160e01b0319166064820152600090606801604051602081830303815290604052805190602001209050600183604001818151611dd59190613dab565b63ffffffff1690525060408051602081019091526001600160fd1b0391909116815292915050565b60408051808201909152600080825260208201526106d9838383612d36565b611d53828284612d78565b81516020808401516040516000928101929092526024820183905260448201526064810183905260840160408051808303601f1901815291815281516020928301208552848201519051600160e01b928101929092526024820183905260448201526064810183905260840160408051601f1981840301815291905280516020918201209301929092525050565b60606000611ec36001610892565b90506000611ed16000610892565b90506000611ede87610892565b90506000611eec8689612c36565b9050611ef88185612e08565b8051611f0357600080fd5b600089516001600160401b03811115611f2c57634e487b7160e01b600052604160045260246000fd5b604051908082528060200260200182016040528015611f6c57816020015b604080516020810190915260008152815260200190600190039081611f4a5790505b50905060008a516001600160401b03811115611f9857634e487b7160e01b600052604160045260246000fd5b604051908082528060200260200182016040528015611fd857816020015b604080516020810190915260008152815260200190600190039081611fb65790505b50905060005b8b5181101561212b576120218c828151811061200a57634e487b7160e01b600052603260045260246000fd5b60200260200101518b612c3690919063ffffffff16565b955061205d8484838151811061204757634e487b7160e01b600052603260045260246000fd5b6020026020010151612ccf90919063ffffffff16565b6120978684838151811061208157634e487b7160e01b600052603260045260246000fd5b6020026020010151612cb590919063ffffffff16565b6120bb8983838151811061204757634e487b7160e01b600052603260045260246000fd5b6120f5868383815181106120df57634e487b7160e01b600052603260045260246000fd5b6020026020010151612e0890919063ffffffff16565b6121198583838151811061208157634e487b7160e01b600052603260045260246000fd5b8061212381613e20565b915050611fde565b5060008b516001600160401b0381111561215557634e487b7160e01b600052604160045260246000fd5b60405190808252806020026020018201604052801561219557816020015b6040805160208101909152600081528152602001906001900390816121735790505b5090506121c66121a56001610892565b8260008151811061204757634e487b7160e01b600052603260045260246000fd5b60015b600183516121d79190613df2565b81101561229057612233836121ed600184613df2565b8151811061220b57634e487b7160e01b600052603260045260246000fd5b602002602001015183838151811061204757634e487b7160e01b600052603260045260246000fd5b61227e83828151811061225657634e487b7160e01b600052603260045260246000fd5b602002602001015183838151811061208157634e487b7160e01b600052603260045260246000fd5b8061228881613e20565b9150506121c9565b506122d881600183516122a39190613df2565b815181106122c157634e487b7160e01b600052603260045260246000fd5b602002602001015186612ccf90919063ffffffff16565b61231f82600184516122ea9190613df2565b8151811061230857634e487b7160e01b600052603260045260246000fd5b602002602001015186612cb590919063ffffffff16565b61232885612e3a565b945060006001835161233a9190613df2565b90505b82518110156124015761236a8684838151811061204757634e487b7160e01b600052603260045260246000fd5b6123b582828151811061238d57634e487b7160e01b600052603260045260246000fd5b602002602001015184838151811061208157634e487b7160e01b600052603260045260246000fd5b6123ef8382815181106123d857634e487b7160e01b600052603260045260246000fd5b602002602001015187612cb590919063ffffffff16565b806123f981613e09565b91505061233d565b5060005b835181101561246b5761245983828151811061243157634e487b7160e01b600052603260045260246000fd5b602002602001015185838151811061208157634e487b7160e01b600052603260045260246000fd5b8061246381613e20565b915050612405565b50919b9a5050505050505050505050565b60008061249183600001518660a00151612e76565b805190915061249f57600080fd5b6101008401516124b0908290612cb5565b60006124bc6001610892565b905060006124df8661012001516040805160208101909152600081529051815290565b905060006124ed6000610892565b905060006124fb6000610892565b905060005b885151811015612595576125488a60c00151828151811061253157634e487b7160e01b600052603260045260246000fd5b602002602001015184612ccf90919063ffffffff16565b6125796125728a6000015183815181106103cd57634e487b7160e01b600052603260045260246000fd5b8490612cb5565b6125838284612cd4565b8061258d81613e20565b915050612500565b5060c08801516125ae9060005b60200201518290612cb5565b6125b88382612cd4565b88516125c5908590612cb5565b88516125d2908590612cb5565b88516125df908590612cb5565b88516125ec908590612cb5565b88516125f9908590612cb5565b60e08801516040805160208101909152600080825291518152905b60038110156126be5761264f8a6101400151826003811061264557634e487b7160e01b600052603260045260246000fd5b6020020151518552565b60208b015161265f908590612cb5565b60408b015161266f908590612cd4565b6126a28a60800151826004811061269657634e487b7160e01b600052603260045260246000fd5b60200201518590612cd4565b6126ac8285612cb5565b806126b681613e20565b915050612614565b5060408a01515183526080890151612706906126dc60016004613df2565b600481106126fa57634e487b7160e01b600052603260045260246000fd5b60200201518490612cd4565b6127108184612cb5565b61271a8186612cb5565b6127248482612e08565b8951612731908690612cb5565b6127598a60c0015160008151811061253157634e487b7160e01b600052603260045260246000fd5b6127638386612cb5565b61276d8484612e08565b5050905192519092149695505050505050565b611d53828260000151611e27565b604080518082019091526000808252602082015260608201516127d5906127b760046001613d93565b60078110610f4357634e487b7160e01b600052603260045260246000fd5b90506000612805604080518082018252600080825260209182015281518083019092526001825260029082015290565b905060006128136000610892565b905060005b600481101561288f576128718660800151826004811061284857634e487b7160e01b600052603260045260246000fd5b602002015186606001518360078110610f8957634e487b7160e01b600052603260045260246000fd5b925061287d8484611e1c565b8061288781613e20565b915050612818565b5060808501805151518252516128a69060016125a2565b60608401516128b89082906004610f89565b91506128c48383611e1c565b60a08501515160608501516128fe91906128e060046002613d93565b60078110610f8957634e487b7160e01b600052603260045260246000fd5b915061290a8383611e1c565b60c08501515161291b908490612ea5565b60006129276001610892565b9050612934878783612eb0565b915061295f828660800151600160028110610f8957634e487b7160e01b600052603260045260246000fd5b925061296b8484611e1c565b8651612978908290612cb5565b604080516020808201835260008083528451835260a08b015184518084019095529084525183528901519091906129b0908290612cb5565b6080880151516129c1908290612cd4565b60408901516129d1908290612cd4565b60005b6003811015612a925760a08a0151518552612a188860c001518260038110612a0c57634e487b7160e01b600052603260045260246000fd5b60200201518690612cb5565b60208a0151612a28908690612cb5565b60408a0151612a38908690612cd4565b6080890151612a7690612a4c836001613d93565b60048110612a6a57634e487b7160e01b600052603260045260246000fd5b60200201518690612cd4565b612a808286612cb5565b80612a8a81613e20565b9150506129d4565b50612a9d8183612cb5565b8851612aaa908490612cb5565b612ae98960c00151600081518110612ad257634e487b7160e01b600052603260045260246000fd5b602002602001015185612ccf90919063ffffffff16565b612af38484612cb5565b612afd8185612cd4565b6000612b096001610892565b905060005b6003811015612bb25760208b0151518652612b538a61014001518260038110612b4757634e487b7160e01b600052603260045260246000fd5b60200201518790612cb5565b60408b0151612b63908790612cd4565b612b968a608001518260048110612b8a57634e487b7160e01b600052603260045260246000fd5b60200201518790612cd4565b612ba08287612cb5565b80612baa81613e20565b915050612b0e565b5060208a0151612bc3908290612cb5565b60e0890151612bd3908290612cb5565b612bdd8184612cb5565b6040890151612bec9083611dfd565b9550612c0f612c08828a60a001516001600461164e9190613df2565b8790612cee565b612c198787611e1c565b60608a0151612c29908890612ea5565b5050505050509392505050565b604080516020808201835260008252825160c081018452818152808201829052928301528351606083015260808201839052600080516020613e8883398151915260a083015290612c85613378565b600060208260c08560055afa905080612c9d57600080fd5b50604080516020810190915290518152949350505050565b600080516020613e88833981519152815183510990915250565b519052565b600080516020613e88833981519152815183510890915250565b611d5382828461316b565b6020810151612d1157805115612d0e57600080fd5b50565b6020810151612d2e90600080516020613e68833981519152613df2565b602090910152565b612d3e613396565b835181526020840151816001602002015282518160026020020152600060408360608460075afa905080612d7157600080fd5b5050505050565b8151158015612d8957506020820151155b15612da1578251815260209283015192019190915250565b8251158015612db257506020830151155b15612dc7578151815260209182015191015250565b612dcf6133b4565b8351815260208085015181830152835160408301528301518160035b6020020152600060408360808460065afa905080612d7157600080fd5b600080516020613e888339815191528151612e3190600080516020613e88833981519152613df2565b83510890915250565b6040805160208101909152600081528151612e5457600080fd5b6106d982612e716002600080516020613e88833981519152613df2565b612c36565b604080516020810190915260008152612e8f8284612c36565b90506106d9612e9e6001610892565b8290612e08565b611d53828284612d36565b6040805160208101909152600081526000612ecb6001610892565b90506000612ed96002610892565b90506000612ee76003610892565b90506000612ef56004610892565b9050612f016000610892565b94506000612f0f6000610892565b90506000612f1d6000610892565b90506000612f2b6000610892565b905060005b6003811015613076578b51612f46908b90612cb5565b60808b0151612f9390612f5a836003613df2565b60048110612f7857634e487b7160e01b600052603260045260246000fd5b60200201516040805160208101909152600081529051815290565b9350612f9f8486612cb5565b60808b0151612fb390612f5a836002613df2565b9250612fbf8385612e08565b60408051602081019091526000815283518152604080516020810190915260008152845181529092509350612ff48489612e08565b612ffe8285612cb5565b60408051602081019091526000815283518152935061301d8488612e08565b6130278285612cb5565b6040805160208101909152600081528351815293506130468487612e08565b6130508285612cb5565b61305a828b612cb5565b6130648983612cd4565b8061306e81613e20565b915050612f30565b508a51613084908a90612cb5565b60808a0151613094906000612f78565b92506130a08385612cb5565b60a08a01516130b0906000612f78565b91506130bc8284612e08565b5060408051602080820183526000808352845183528351918201909352918252825182529092506130ed8388612e08565b6130f78184612cb5565b6040805160208101909152600081528251815292506131168387612e08565b6131208184612cb5565b60408051602081019091526000815282518152925061313f8386612e08565b6131498184612cb5565b613153818a612cb5565b61315d8882612cd4565b505050505050509392505050565b815115801561317c57506020820151155b15613194578251815260209283015192019190915250565b82511580156131a557506020830151155b156131d5578151815260208201516131cb90600080516020613e68833981519152613df2565b6020909101525050565b6131dd6133b4565b83518152602080850151818301528351604083015283015161320d90600080516020613e68833981519152613df2565b816003612deb565b604051806101a00160405280606081526020016132306133d2565b8152602001613252604051806040016040528060008152602001600081525090565b815260200161325f6133d2565b815260200161326c6133fb565b81526040805180820182526000602080830182815283528085019290925282518084018452808301828152815283850152825180830184528181526060850152825180830184528181526080850152825191820190925290815260a082015260c0016132d661342f565b81526020016132f8604051806040016040528060008152602001600081525090565b815260200161331a604051806040016040528060008152602001600081525090565b905290565b60405180604001604052806002905b604080518082019091526000808252602082015281526020019060019003908161332e5790505090565b604051806040016040528061336b613450565b815260200161331a613450565b60405180602001604052806001906020820280368337509192915050565b60405180606001604052806003906020820280368337509192915050565b60405180608001604052806004906020820280368337509192915050565b6040805160c0810190915260006080820181815260a0830191909152815260036020820161332e565b60405180608001604052806004905b60408051602081019091526000815281526020019060019003908161340a5790505090565b6040805160808101909152600060608201908152815260026020820161340a565b60405180604001604052806002906020820280368337509192915050565b600082601f83011261347e578081fd5b604051606081018181106001600160401b03821117156134a0576134a0613e51565b6040528083606081018610156134b4578384fd5b835b60038110156134de576134c987836137bd565b835260209283019291909101906001016134b6565b509195945050505050565b600082601f8301126134f9578081fd5b613501613cf5565b808385608086011115613512578384fd5b835b600281101561353e5761352787836137fd565b845260209093019260409190910190600101613514565b509095945050505050565b600082601f830112613559578081fd5b60408051608081018181106001600160401b038211171561357c5761357c613e51565b825280846101008101871015613590578485fd5b845b60048110156135b9576135a588836137fd565b835260209092019190840190600101613592565b50919695505050505050565b600082601f8301126135d5578081fd5b6040805160e081018181106001600160401b03821117156135f8576135f8613e51565b825280846101c0810187101561360c578485fd5b845b60078110156135b95761362188836137fd565b83526020909201919084019060010161360e565b600082601f830112613645578081fd5b6040516102008082018281106001600160401b038211171561366957613669613e51565b604052818482810187101561367c578485fd5b8492505b60108310156134de57803582526001929092019160209182019101613680565b600082601f8301126136b0578081fd5b6136b8613cf5565b8083856040860111156136c9578384fd5b835b600281101561353e5781358452602093840193909101906001016136cb565b600082601f8301126136fa578081fd5b8135602061370f61370a83613d70565b613d40565b80838252828201915082860187848660051b890101111561372e578586fd5b855b8581101561374c57813584529284019290840190600101613730565b5090979650505050505050565b600082601f830112613769578081fd5b8135602061377961370a83613d70565b80838252828201915082860187848660051b8901011115613798578586fd5b855b8581101561374c576137ab8261390b565b8452928401929084019060010161379a565b6000602082840312156137ce578081fd5b604051602081018181106001600160401b03821117156137f0576137f0613e51565b6040529135825250919050565b60006040828403121561380e578081fd5b613816613cf5565b9050813581526020820135602082015292915050565b60006080828403121561383d578081fd5b613845613cf5565b905061385183836136a0565b815261386083604084016136a0565b602082015292915050565b6000610480828403121561387d578081fd5b613885613d1d565b905081358152602082013560208201526138a283604084016137bd565b60408201526138b483606084016135c5565b60608201526138c78361022084016134e9565b60808201526138da836102a08401613549565b60a08201526138ed836103a0840161346e565b60c082015261390083610400840161382c565b60e082015292915050565b803560ff8116811461391c57600080fd5b919050565b60008060008060006102808688031215613939578081fd5b85356001600160401b038082111561394f578283fd5b61395b89838a016136ea565b96506020880135915080821115613970578283fd5b61397c89838a016136ea565b95506040880135915080821115613991578283fd5b61399d89838a01613759565b945060608801359150808211156139b2578283fd5b506139bf888289016136ea565b9250506139cf8760808801613635565b90509295509295909350565b60008060006104c084860312156139f0578081fd5b83356001600160401b0380821115613a06578283fd5b613a12878388016136ea565b94506020860135915080821115613a27578283fd5b50613a34868287016136ea565b925050613a44856040860161386b565b90509250925092565b600080600080600080600080610740898b031215613a69578586fd5b88356001600160401b0380821115613a7f578788fd5b613a8b8c838d016136ea565b995060208b0135915080821115613aa0578788fd5b613aac8c838d016136ea565b985060408b01359750613ac160608c0161390b565b965060808b0135915080821115613ad6578485fd5b613ae28c838d01613759565b955060a08b0135915080821115613af7578485fd5b50613b048b828c016136ea565b935050613b148a60c08b01613635565b9150613b248a6102c08b0161386b565b90509295985092959890939650565b600060208284031215613b44578081fd5b5051919050565b6000815180845260208085019450808401835b83811015613b7a57815187529582019590820190600101613b5e565b509495945050505050565b60008151815b81811015613ba55760208185018101518683015201613b8b565b81811115613bb35782828601525b509290920192915050565b60006100c58284613b85565b6000613bd68285613b85565b8084835b6010811015613bf9578151845260209384019390910190600101613bda565b50506102000195945050505050565b6000613c148285613b85565b9283525050602001919050565b6000613c2d8285613b85565b60f89390931b6001600160f81b03191683525050600101919050565b6000610280808352613c5d81840189613b4b565b9050602083820381850152613c728289613b4b565b84810360408601528751808252828901935090820190845b81811015613ca957845160ff1683529383019391830191600101613c8a565b50508481036060860152613cbd8188613b4b565b9350506080840191508460005b6010811015613ce757815184529282019290820190600101613cca565b505050509695505050505050565b604080519081016001600160401b0381118282101715613d1757613d17613e51565b60405290565b60405161010081016001600160401b0381118282101715613d1757613d17613e51565b604051601f8201601f191681016001600160401b0381118282101715613d6857613d68613e51565b604052919050565b60006001600160401b03821115613d8957613d89613e51565b5060051b60200190565b60008219821115613da657613da6613e3b565b500190565b600063ffffffff808316818516808303821115613dca57613dca613e3b565b01949350505050565b6000816000190483118215151615613ded57613ded613e3b565b500290565b600082821015613e0457613e04613e3b565b500390565b600081613e1857613e18613e3b565b506000190190565b6000600019821415613e3457613e34613e3b565b5060010190565b634e487b7160e01b600052601160045260246000fd5b634e487b7160e01b600052604160045260246000fdfe30644e72e131a029b85045b68181585d97816a916871ca8d3c208c16d87cfd4730644e72e131a029b85045b68181585d2833e84879b9709143e1f593f0000001a26469706673582212206853ffb5a6db2496199a98aefeb28639723a2e07428bd58a7720e2ac9066837f64736f6c63430008040033",
  "linkReferences": {},
  "deployedLinkReferences": {}
}