{
  "_format": "hh-sol-artifact-1",
  "contractName": "VerifierWithDeserialize",
  "sourceName": "@matterlabs/zksync-contracts/l1/contracts/zksync/libraries/PlonkCore.sol",
  "abi": [
    {
      "inputs": [
        {
          "internalType": "uint256[]",
          "name": "public_inputs",
          "type": "uint256[]"
        },
        {
          "internalType": "uint256[]",
          "name": "serialized_proof",
          "type": "uint256[]"
        },
        {
          "components": [
            {
              "internalType": "uint256",
              "name": "domain_size",
              "type": "uint256"
            },
            {
              "internalType": "uint256",
              "name": "num_inputs",
              "type": "uint256"
            },
            {
              "components": [
                {
                  "internalType": "uint256",
                  "name": "value",
                  "type": "uint256"
                }
              ],
              "internalType": "struct PairingsBn254.Fr",
              "name": "omega",
              "type": "tuple"
            },
            {
              "components": [
                {
                  "internalType": "uint256",
                  "name": "X",
                  "type": "uint256"
                },
                {
                  "internalType": "uint256",
                  "name": "Y",
                  "type": "uint256"
                }
              ],
              "internalType": "struct PairingsBn254.G1Point[7]",
              "name": "gate_setup_commitments",
              "type": "tuple[7]"
            },
            {
              "components": [
                {
                  "internalType": "uint256",
                  "name": "X",
                  "type": "uint256"
                },
                {
                  "internalType": "uint256",
                  "name": "Y",
                  "type": "uint256"
                }
              ],
              "internalType": "struct PairingsBn254.G1Point[2]",
              "name": "gate_selector_commitments",
              "type": "tuple[2]"
            },
            {
              "components": [
                {
                  "internalType": "uint256",
                  "name": "X",
                  "type": "uint256"
                },
                {
                  "internalType": "uint256",
                  "name": "Y",
                  "type": "uint256"
                }
              ],
              "internalType": "struct PairingsBn254.G1Point[4]",
              "name": "copy_permutation_commitments",
              "type": "tuple[4]"
            },
            {
              "components": [
                {
                  "internalType": "uint256",
                  "name": "value",
                  "type": "uint256"
                }
              ],
              "internalType": "struct PairingsBn254.Fr[3]",
              "name": "copy_permutation_non_residues",
              "type": "tuple[3]"
            },
            {
              "components": [
                {
                  "internalType": "uint256[2]",
                  "name": "X",
                  "type": "uint256[2]"
                },
                {
                  "internalType": "uint256[2]",
                  "name": "Y",
                  "type": "uint256[2]"
                }
              ],
              "internalType": "struct PairingsBn254.G2Point",
              "name": "g2_x",
              "type": "tuple"
            }
          ],
          "internalType": "struct Plonk4VerifierWithAccessToDNext.VerificationKey",
          "name": "vk",
          "type": "tuple"
        }
      ],
      "name": "verify_serialized_proof",
      "outputs": [
        {
          "internalType": "bool",
          "name": "",
          "type": "bool"
        }
      ],
      "stateMutability": "view",
      "type": "function"
    },
    {
      "inputs": [
        {
          "internalType": "uint256[]",
          "name": "public_inputs",
          "type": "uint256[]"
        },
        {
          "internalType": "uint256[]",
          "name": "serialized_proof",
          "type": "uint256[]"
        },
        {
          "internalType": "uint256",
          "name": "recursive_vks_root",
          "type": "uint256"
        },
        {
          "internalType": "uint8",
          "name": "max_valid_index",
          "type": "uint8"
        },
        {
          "internalType": "uint8[]",
          "name": "recursive_vks_indexes",
          "type": "uint8[]"
        },
        {
          "internalType": "uint256[]",
          "name": "individual_vks_inputs",
          "type": "uint256[]"
        },
        {
          "internalType": "uint256[16]",
          "name": "subproofs_limbs",
          "type": "uint256[16]"
        },
        {
          "components": [
            {
              "internalType": "uint256",
              "name": "domain_size",
              "type": "uint256"
            },
            {
              "internalType": "uint256",
              "name": "num_inputs",
              "type": "uint256"
            },
            {
              "components": [
                {
                  "internalType": "uint256",
                  "name": "value",
                  "type": "uint256"
                }
              ],
              "internalType": "struct PairingsBn254.Fr",
              "name": "omega",
              "type": "tuple"
            },
            {
              "components": [
                {
                  "internalType": "uint256",
                  "name": "X",
                  "type": "uint256"
                },
                {
                  "internalType": "uint256",
                  "name": "Y",
                  "type": "uint256"
                }
              ],
              "internalType": "struct PairingsBn254.G1Point[7]",
              "name": "gate_setup_commitments",
              "type": "tuple[7]"
            },
            {
              "components": [
                {
                  "internalType": "uint256",
                  "name": "X",
                  "type": "uint256"
                },
                {
                  "internalType": "uint256",
                  "name": "Y",
                  "type": "uint256"
                }
              ],
              "internalType": "struct PairingsBn254.G1Point[2]",
              "name": "gate_selector_commitments",
              "type": "tuple[2]"
            },
            {
              "components": [
                {
                  "internalType": "uint256",
                  "name": "X",
                  "type": "uint256"
                },
                {
                  "internalType": "uint256",
                  "name": "Y",
                  "type": "uint256"
                }
              ],
              "internalType": "struct PairingsBn254.G1Point[4]",
              "name": "copy_permutation_commitments",
              "type": "tuple[4]"
            },
            {
              "components": [
                {
                  "internalType": "uint256",
                  "name": "value",
                  "type": "uint256"
                }
              ],
              "internalType": "struct PairingsBn254.Fr[3]",
              "name": "copy_permutation_non_residues",
              "type": "tuple[3]"
            },
            {
              "components": [
                {
                  "internalType": "uint256[2]",
                  "name": "X",
                  "type": "uint256[2]"
                },
                {
                  "internalType": "uint256[2]",
                  "name": "Y",
                  "type": "uint256[2]"
                }
              ],
              "internalType": "struct PairingsBn254.G2Point",
              "name": "g2_x",
              "type": "tuple"
            }
          ],
          "internalType": "struct Plonk4VerifierWithAccessToDNext.VerificationKey",
          "name": "vk",
          "type": "tuple"
        }
      ],
      "name": "verify_serialized_proof_with_recursion",
      "outputs": [
        {
          "internalType": "bool",
          "name": "",
          "type": "bool"
        }
      ],
      "stateMutability": "view",
      "type": "function"
    }
  ],
  "bytecode": "0x608060405234801561001057600080fd5b50613cea806100206000396000f3fe608060405234801561001057600080fd5b50600436106100365760003560e01c80631d8a56631461003b578063fd1bc84414610062575b600080fd5b61004e6100493660046138ce565b610075565b604051901515815260200160405180910390f35b61004e610070366004613940565b6100ae565b6000835182602001511461008857600080fd5b600061009485856100ef565b905060006100a28285610640565b925050505b9392505050565b600088518260200151146100c157600080fd5b60006100cd8a8a6100ef565b905060006100e082858b8b8b8b8b61068c565b9b9a5050505050505050505050565b6100f76131c2565b602282511461010557600080fd5b82516001600160401b0381111561012c57634e487b7160e01b600052604160045260246000fd5b604051908082528060200260200182016040528015610155578160200160208202803683370190505b50815260005b83518110156101cd5783818151811061018457634e487b7160e01b600052603260045260246000fd5b6020026020010151826000015182815181106101b057634e487b7160e01b600052603260045260246000fd5b6020908102919091010152806101c581613c2d565b91505061015b565b506000805b60048110156102875761023f8483815181106101fe57634e487b7160e01b600052603260045260246000fd5b6020026020010151858460016102149190613ba0565b8151811061023257634e487b7160e01b600052603260045260246000fd5b6020026020010151610751565b8360200151826004811061026357634e487b7160e01b600052603260045260246000fd5b6020020152610273600283613ba0565b91508061027f81613c2d565b9150506101d2565b506102c18382815181106102ab57634e487b7160e01b600052603260045260246000fd5b6020026020010151848360016102149190613ba0565b60408301526102d1600282613ba0565b905060005b600481101561034a576103028483815181106101fe57634e487b7160e01b600052603260045260246000fd5b8360600151826004811061032657634e487b7160e01b600052603260045260246000fd5b6020020152610336600283613ba0565b91508061034281613c2d565b9150506102d6565b5060005b60048110156103cf5761038784838151811061037a57634e487b7160e01b600052603260045260246000fd5b602002602001015161083f565b836080015182600481106103ab57634e487b7160e01b600052603260045260246000fd5b60200201526103bb600183613ba0565b9150806103c781613c2d565b91505061034e565b5060005b6001811015610447576103ff84838151811061037a57634e487b7160e01b600052603260045260246000fd5b8360a00151826001811061042357634e487b7160e01b600052603260045260246000fd5b6020020152610433600183613ba0565b91508061043f81613c2d565b9150506103d3565b5060005b60018110156104bf5761047784838151811061037a57634e487b7160e01b600052603260045260246000fd5b8360c00151826001811061049b57634e487b7160e01b600052603260045260246000fd5b60200201526104ab600183613ba0565b9150806104b781613c2d565b91505061044b565b5060005b6003811015610538576104ef84838151811061037a57634e487b7160e01b600052603260045260246000fd5b836101400151826003811061051457634e487b7160e01b600052603260045260246000fd5b6020020152610524600183613ba0565b91508061053081613c2d565b9150506104c3565b5061055c83828151811061037a57634e487b7160e01b600052603260045260246000fd5b60e083015261056c600182613ba0565b905061059183828151811061037a57634e487b7160e01b600052603260045260246000fd5b6101008301526105a2600182613ba0565b90506105c783828151811061037a57634e487b7160e01b600052603260045260246000fd5b6101208301526105d8600182613ba0565b90506105fd8382815181106102ab57634e487b7160e01b600052603260045260246000fd5b61016083015261060e600282613ba0565b90506106338382815181106102ab57634e487b7160e01b600052603260045260246000fd5b6101808301525092915050565b600080600061064f858561087a565b90925090508161066457600092505050610686565b805161068190610672610927565b602084015160e08801516109e7565b925050505b92915050565b600080600061069e8888888888610b1f565b9150915089600001516000815181106106c757634e487b7160e01b600052603260045260246000fd5b602002602001015182146106eb57634e487b7160e01b600052600160045260246000fd5b6000806106f88c8c61087a565b90925090508161070f576000945050505050610746565b600061071b8483610e82565b805190915061073e9061072c610927565b83600160200201518f60e001516109e7565b955050505050505b979650505050505050565b604080518082019091526000808252602082015282158015610771575081155b15610792576040518060400160405280848152602001838152509050610686565b600080516020613c7583398151915283106107ac57600080fd5b600080516020613c7583398151915282106107c657600080fd5b6000600080516020613c7583398151915283840990506000600080516020613c758339815191528586099050600080516020613c758339815191528582099050600080516020613c7583398151915260038208905080821461082757600080fd5b50506040805180820190915292835250602082015290565b604080516020810190915260008152600080516020613c95833981519152821061086857600080fd5b50604080516020810190915290815290565b60006108846132cc565b6108f96040805161010081018252600060e082018181528252825160208082018552828252808401919091528351808201855282815283850152835180820185528281526060840152835180820185528281526080840152835190810190935282529060a08201908152602001606081525090565b610904818686610f79565b9250826109115750610920565b61091c818686611349565b9150505b9250929050565b61092f613305565b50604080516080810182527f198e9393920d483a7260bfb731fb5d25f1aa493335a9e71297e485b7aef312c28183019081527f1800deef121f1e76426a00665e5c4479674322d4f75edadd46debd5cd992f6ed6060830152815281518083019092527f090689d0585ff075ec9e99ad690c3395bc4b313370b38ef355acdadcd122975b82527f12c85ea5db8c6deb4aab71808dcb408fe3d1e7690c43d37b4ce6cc0166fa7daa60208381019190915281019190915290565b60408051600280825260608201909252600091829190816020015b6040805180820190915260008082526020820152815260200190600190039081610a025750506040805160028082526060820190925291925060009190602082015b610a4c613305565b815260200190600190039081610a445790505090508682600081518110610a8357634e487b7160e01b600052603260045260246000fd5b60200260200101819052508482600181518110610ab057634e487b7160e01b600052603260045260246000fd5b60200260200101819052508581600081518110610add57634e487b7160e01b600052603260045260246000fd5b60200260200101819052508381600181518110610b0a57634e487b7160e01b600052603260045260246000fd5b6020026020010181905250610746828261193f565b6000610b296132cc565b8351855114610b4857634e487b7160e01b600052600160045260246000fd5b600087604051602001610b5d91815260200190565b60408051601f1981840301815291905290506000805b8751811015610c0157878181518110610b9c57634e487b7160e01b600052603260045260246000fd5b602002602001015191508860ff168260ff161115610bca57634e487b7160e01b600052600160045260246000fd5b8282604051602001610bdd929190613ada565b60405160208183030381529060405292508080610bf990613c2d565b915050610b73565b506000805b8851811015610c9b57878181518110610c2f57634e487b7160e01b600052603260045260246000fd5b60200260200101519150600080516020613c958339815191528210610c6457634e487b7160e01b600052600160045260246000fd5b8382604051602001610c77929190613ac1565b60405160208183030381529060405293508080610c9390613c2d565b915050610c06565b508286604051602001610caf929190613a83565b60405160208183030381529060405292506000600284604051610cd29190613a77565b602060405180830381855afa158015610cef573d6000803e3d6000fd5b5050506040513d601f19601f82011682018060405250810190610d129190613a26565b6001600160f81b03811696509050610dd2610d2f60446003613be0565b6060890151901b610d4260446002613be0565b60408a015160208b01518b519190921b91610d639160449190911b90613ba0565b610d6d9190613ba0565b610d779190613ba0565b610d8360446003613be0565b60e08a0151901b610d9660446002613be0565b60c08b015160a08c0151911b9060441b8b60045b6020020151610db99190613ba0565b610dc39190613ba0565b610dcd9190613ba0565b610751565b8552610e6c610de360446003613be0565b610160890151901b610df760446002613be0565b6101408a01516101208b01516101008c01519190921b91610e1e9160449190911b90613ba0565b610e289190613ba0565b610e329190613ba0565b610e3e60446003613be0565b6101e08a0151901b610e5260446002613be0565b6101c08b01516101a08c0151911b9060441b8b600c610daa565b8560016020020152505050509550959350505050565b610e8a6132cc565b604080516060810182526000808252602082018190529181018290529050610ebb8460005b60200201518290611ce4565b610ec6846001610eaf565b610ed1836000610eaf565b610edc836001610eaf565b6000610ee782611d04565b9050610f1b8560005b6020020151604080518082019091526000808252602080830191825283518352929092015190915290565b8352610f28856001610ef0565b60208401526000610f418286835b602002015190611daa565b9050610f56818560005b602002015190611dc9565b610f6282866001610f36565b9050610f7081856001610f4b565b50505092915050565b602081015182515160009114610f8e57600080fd5b600182602001511015610fa057600080fd5b60408051606081018252600080825260208201819052918101829052905b836020015181101561101a5761100885600001518281518110610ff157634e487b7160e01b600052603260045260246000fd5b602002602001015183611dd490919063ffffffff16565b8061101281613c2d565b915050610fbe565b5060005b600481101561106c5761105a8560200151826004811061104e57634e487b7160e01b600052603260045260246000fd5b60200201518390611ce4565b8061106481613c2d565b91505061101e565b5061107681611d04565b602086015261108481611d04565b60408087019190915284015161109b908290611ce4565b6110a481611d04565b855260005b60048110156110eb576110d98560600151826004811061104e57634e487b7160e01b600052603260045260246000fd5b806110e381613c2d565b9150506110a9565b506110f581611d04565b60a086015260208301516000906001600160401b0381111561112757634e487b7160e01b600052604160045260246000fd5b604051908082528060200260200182016040528015611150578160200160208202803683370190505b50905060005b815181101561119d578082828151811061118057634e487b7160e01b600052603260045260246000fd5b60209081029190910101528061119581613c2d565b915050611156565b506111b681856000015186604001518960a00151611e62565b60c087015260006111c8878787612429565b9050806111db57600093505050506100a7565b6101008601516111ec90849061272d565b60005b600481101561123d5761122b8760800151826004811061121f57634e487b7160e01b600052603260045260246000fd5b6020020151859061272d565b8061123581613c2d565b9150506111ef565b5060005b6001811015611283576112718760a00151826001811061121f57634e487b7160e01b600052603260045260246000fd5b8061127b81613c2d565b915050611241565b5060c08601515161129590849061272d565b60005b60038110156112db576112c9876101400151826003811061121f57634e487b7160e01b600052603260045260246000fd5b806112d381613c2d565b915050611298565b5060e08601516112ec90849061272d565b6101208601516112fd90849061272d565b61130683611d04565b606088015261016086015161131c908490611ce4565b61018086015161132d908490611ce4565b61133683611d04565b6080880152506001925050509392505050565b6113516132cc565b600061135e85858561273b565b835160a087015191925060009161137491612be3565b905060006113a4604080518082018252600080825260209182015281518083019092526001825260029082015290565b905060006113b2600161083f565b905060006113de8860600151600060048110610ef057634e487b7160e01b600052603260045260246000fd5b905060006113ec600161083f565b905060015b600481101561144a576114048287612c62565b61142c828b606001518360048110610f3657634e487b7160e01b600052603260045260246000fd5b94506114388386611dc9565b8061144281613c2d565b9150506113f1565b5060608a015161145b908490612c62565b6114658287611dc9565b60005b60048110156114c75760608b0151611481908590612c62565b6114a9848b602001518360048110610f3657634e487b7160e01b600052603260045260246000fd5b94506114b58386611dc9565b806114bf81613c2d565b915050611468565b5060005b60018110156115145760608b01516114e4908590612c62565b60808901516114f69085906000610f36565b94506115028386611dc9565b8061150c81613c2d565b9150506114cb565b5060005b61152460016004613bff565b8110156115815760608b015161153b908590612c62565b611563848a60a001518360048110610f3657634e487b7160e01b600052603260045260246000fd5b945061156f8386611dc9565b8061157981613c2d565b915050611518565b5060608a0151611592908490612c62565b8251815260808a01516115a6908290612c62565b60408901516115c0906115b99083611daa565b8390611dc9565b60608a01516115d0908490612c62565b8251815260808a01516115e4908290612c62565b611619818a60200151600160046115fb9190613bff565b60048110610f3657634e487b7160e01b600052603260045260246000fd5b93506116258285611dc9565b61162f600161083f565b925060006116528a61010001516040805160208101909152600081529051815290565b905061166b8b6060015185612c6290919063ffffffff16565b6101208a015151825261167e8285612c62565b6116888183612c81565b60005b60048110156116fb5760608c01516116a4908690612c62565b6116d58b6080015182600481106116cb57634e487b7160e01b600052603260045260246000fd5b6020020151518452565b6116df8386612c62565b6116e98284612c81565b806116f381613c2d565b91505061168b565b5060005b60018110156117655760608c0151611718908690612c62565b61173f8b60c0015182600181106116cb57634e487b7160e01b600052603260045260246000fd5b6117498386612c62565b6117538284612c81565b8061175d81613c2d565b9150506116ff565b5060005b60038110156117d05760608c0151611782908690612c62565b6117aa8b610140015182600381106116cb57634e487b7160e01b600052603260045260246000fd5b6117b48386612c62565b6117be8284612c81565b806117c881613c2d565b915050611769565b5060608b01516117e1908590612c62565b60e08a01515182526117f38285612c62565b60808b0151611803908390612c62565b61180d8183612c81565b60608b015161181d908590612c62565b60a08a0151515182526118308285612c62565b60808b0151611840908390612c62565b61184a8183612c81565b61188a6118838261187d604080518082018252600080825260209182015281518083019092526001825260029082015290565b90611daa565b8490612c9b565b60a08b01516101608b015184916118ab916118a491611daa565b8290611dc9565b60a08c015151835260408a01516118c3908490612c62565b60808c01516118d3908490612c62565b6101808b01516118e7906118a49085611daa565b60006119058d608001518d6101800151611daa90919063ffffffff16565b905061191f8c610160015182611dc990919063ffffffff16565b61192881612ca6565b908952602089015250959998505050505050505050565b6000815183511461194f57600080fd5b8251600061195e826006613be0565b90506000816001600160401b0381111561198857634e487b7160e01b600052604160045260246000fd5b6040519080825280602002602001820160405280156119b1578160200160208202803683370190505b50905060005b83811015611cb0578681815181106119df57634e487b7160e01b600052603260045260246000fd5b602002602001015160000151828260066119f99190613be0565b611a04906000613ba0565b81518110611a2257634e487b7160e01b600052603260045260246000fd5b602002602001018181525050868181518110611a4e57634e487b7160e01b600052603260045260246000fd5b60200260200101516020015182826006611a689190613be0565b611a73906001613ba0565b81518110611a9157634e487b7160e01b600052603260045260246000fd5b602002602001018181525050858181518110611abd57634e487b7160e01b600052603260045260246000fd5b6020908102919091010151515182611ad6836006613be0565b611ae1906002613ba0565b81518110611aff57634e487b7160e01b600052603260045260246000fd5b602002602001018181525050858181518110611b2b57634e487b7160e01b600052603260045260246000fd5b60209081029190910181015151015182611b46836006613be0565b611b51906003613ba0565b81518110611b6f57634e487b7160e01b600052603260045260246000fd5b602002602001018181525050858181518110611b9b57634e487b7160e01b600052603260045260246000fd5b602002602001015160200151600060028110611bc757634e487b7160e01b600052603260045260246000fd5b602002015182611bd8836006613be0565b611be3906004613ba0565b81518110611c0157634e487b7160e01b600052603260045260246000fd5b602002602001018181525050858181518110611c2d57634e487b7160e01b600052603260045260246000fd5b602002602001015160200151600160028110611c5957634e487b7160e01b600052603260045260246000fd5b602002015182611c6a836006613be0565b611c75906005613ba0565b81518110611c9357634e487b7160e01b600052603260045260246000fd5b602090810291909101015280611ca881613c2d565b9150506119b7565b50611cb9613325565b6000602082602086026020860160085afa905080611cd657600080fd5b505115159695505050505050565b611cf2828260000151611dd4565b611d00828260200151611dd4565b5050565b60408051602081019091526000815281516020808401516040808601519051600160e11b938101939093526024830193909352604482015260e09190911b6001600160e01b0319166064820152600090606801604051602081830303815290604052805190602001209050600183604001818151611d829190613bb8565b63ffffffff1690525060408051602081019091526001600160fd1b0391909116815292915050565b6040805180820190915260008082526020820152610686838383612ce3565b611d00828284612d25565b81516020808401516040516000928101929092526024820183905260448201526064810183905260840160408051808303601f1901815291815281516020928301208552848201519051600160e01b928101929092526024820183905260448201526064810183905260840160408051601f1981840301815291905280516020918201209301929092525050565b60606000611e70600161083f565b90506000611e7e600061083f565b90506000611e8b8761083f565b90506000611e998689612be3565b9050611ea58185612db5565b8051611eb057600080fd5b600089516001600160401b03811115611ed957634e487b7160e01b600052604160045260246000fd5b604051908082528060200260200182016040528015611f1957816020015b604080516020810190915260008152815260200190600190039081611ef75790505b50905060008a516001600160401b03811115611f4557634e487b7160e01b600052604160045260246000fd5b604051908082528060200260200182016040528015611f8557816020015b604080516020810190915260008152815260200190600190039081611f635790505b50905060005b8b518110156120d857611fce8c8281518110611fb757634e487b7160e01b600052603260045260246000fd5b60200260200101518b612be390919063ffffffff16565b955061200a84848381518110611ff457634e487b7160e01b600052603260045260246000fd5b6020026020010151612c7c90919063ffffffff16565b6120448684838151811061202e57634e487b7160e01b600052603260045260246000fd5b6020026020010151612c6290919063ffffffff16565b61206889838381518110611ff457634e487b7160e01b600052603260045260246000fd5b6120a28683838151811061208c57634e487b7160e01b600052603260045260246000fd5b6020026020010151612db590919063ffffffff16565b6120c68583838151811061202e57634e487b7160e01b600052603260045260246000fd5b806120d081613c2d565b915050611f8b565b5060008b516001600160401b0381111561210257634e487b7160e01b600052604160045260246000fd5b60405190808252806020026020018201604052801561214257816020015b6040805160208101909152600081528152602001906001900390816121205790505b509050612173612152600161083f565b82600081518110611ff457634e487b7160e01b600052603260045260246000fd5b60015b600183516121849190613bff565b81101561223d576121e08361219a600184613bff565b815181106121b857634e487b7160e01b600052603260045260246000fd5b6020026020010151838381518110611ff457634e487b7160e01b600052603260045260246000fd5b61222b83828151811061220357634e487b7160e01b600052603260045260246000fd5b602002602001015183838151811061202e57634e487b7160e01b600052603260045260246000fd5b8061223581613c2d565b915050612176565b5061228581600183516122509190613bff565b8151811061226e57634e487b7160e01b600052603260045260246000fd5b602002602001015186612c7c90919063ffffffff16565b6122cc82600184516122979190613bff565b815181106122b557634e487b7160e01b600052603260045260246000fd5b602002602001015186612c6290919063ffffffff16565b6122d585612de7565b94506000600183516122e79190613bff565b90505b82518110156123ae5761231786848381518110611ff457634e487b7160e01b600052603260045260246000fd5b61236282828151811061233a57634e487b7160e01b600052603260045260246000fd5b602002602001015184838151811061202e57634e487b7160e01b600052603260045260246000fd5b61239c83828151811061238557634e487b7160e01b600052603260045260246000fd5b602002602001015187612c6290919063ffffffff16565b806123a681613c16565b9150506122ea565b5060005b8351811015612418576124068382815181106123de57634e487b7160e01b600052603260045260246000fd5b602002602001015185838151811061202e57634e487b7160e01b600052603260045260246000fd5b8061241081613c2d565b9150506123b2565b50919b9a5050505050505050505050565b60008061243e83600001518660a00151612e23565b805190915061244c57600080fd5b61010084015161245d908290612c62565b6000612469600161083f565b9050600061248c8661012001516040805160208101909152600081529051815290565b9050600061249a600061083f565b905060006124a8600061083f565b905060005b885151811015612542576124f58a60c0015182815181106124de57634e487b7160e01b600052603260045260246000fd5b602002602001015184612c7c90919063ffffffff16565b61252661251f8a60000151838151811061037a57634e487b7160e01b600052603260045260246000fd5b8490612c62565b6125308284612c81565b8061253a81613c2d565b9150506124ad565b5060c088015161255b9060005b60200201518290612c62565b6125658382612c81565b8851612572908590612c62565b885161257f908590612c62565b885161258c908590612c62565b8851612599908590612c62565b88516125a6908590612c62565b60e08801516040805160208101909152600080825291518152905b600381101561266b576125fc8a610140015182600381106125f257634e487b7160e01b600052603260045260246000fd5b6020020151518552565b60208b015161260c908590612c62565b60408b015161261c908590612c81565b61264f8a60800151826004811061264357634e487b7160e01b600052603260045260246000fd5b60200201518590612c81565b6126598285612c62565b8061266381613c2d565b9150506125c1565b5060408a015151835260808901516126b39061268960016004613bff565b600481106126a757634e487b7160e01b600052603260045260246000fd5b60200201518490612c81565b6126bd8184612c62565b6126c78186612c62565b6126d18482612db5565b89516126de908690612c62565b6127068a60c001516000815181106124de57634e487b7160e01b600052603260045260246000fd5b6127108386612c62565b61271a8484612db5565b5050905192519092149695505050505050565b611d00828260000151611dd4565b604080518082019091526000808252602082015260608201516127829061276460046001613ba0565b60078110610ef057634e487b7160e01b600052603260045260246000fd5b905060006127b2604080518082018252600080825260209182015281518083019092526001825260029082015290565b905060006127c0600061083f565b905060005b600481101561283c5761281e866080015182600481106127f557634e487b7160e01b600052603260045260246000fd5b602002015186606001518360078110610f3657634e487b7160e01b600052603260045260246000fd5b925061282a8484611dc9565b8061283481613c2d565b9150506127c5565b50608085018051515182525161285390600161254f565b60608401516128659082906004610f36565b91506128718383611dc9565b60a08501515160608501516128ab919061288d60046002613ba0565b60078110610f3657634e487b7160e01b600052603260045260246000fd5b91506128b78383611dc9565b60c0850151516128c8908490612e52565b60006128d4600161083f565b90506128e1878783612e5d565b915061290c828660800151600160028110610f3657634e487b7160e01b600052603260045260246000fd5b92506129188484611dc9565b8651612925908290612c62565b604080516020808201835260008083528451835260a08b0151845180840190955290845251835289015190919061295d908290612c62565b60808801515161296e908290612c81565b604089015161297e908290612c81565b60005b6003811015612a3f5760a08a01515185526129c58860c0015182600381106129b957634e487b7160e01b600052603260045260246000fd5b60200201518690612c62565b60208a01516129d5908690612c62565b60408a01516129e5908690612c81565b6080890151612a23906129f9836001613ba0565b60048110612a1757634e487b7160e01b600052603260045260246000fd5b60200201518690612c81565b612a2d8286612c62565b80612a3781613c2d565b915050612981565b50612a4a8183612c62565b8851612a57908490612c62565b612a968960c00151600081518110612a7f57634e487b7160e01b600052603260045260246000fd5b602002602001015185612c7c90919063ffffffff16565b612aa08484612c62565b612aaa8185612c81565b6000612ab6600161083f565b905060005b6003811015612b5f5760208b0151518652612b008a61014001518260038110612af457634e487b7160e01b600052603260045260246000fd5b60200201518790612c62565b60408b0151612b10908790612c81565b612b438a608001518260048110612b3757634e487b7160e01b600052603260045260246000fd5b60200201518790612c81565b612b4d8287612c62565b80612b5781613c2d565b915050612abb565b5060208a0151612b70908290612c62565b60e0890151612b80908290612c62565b612b8a8184612c62565b6040890151612b999083611daa565b9550612bbc612bb5828a60a00151600160046115fb9190613bff565b8790612c9b565b612bc68787611dc9565b60608a0151612bd6908890612e52565b5050505050509392505050565b604080516020808201835260008252825160c081018452818152808201829052928301528351606083015260808201839052600080516020613c9583398151915260a083015290612c32613325565b600060208260c08560055afa905080612c4a57600080fd5b50604080516020810190915290518152949350505050565b600080516020613c95833981519152815183510990915250565b519052565b600080516020613c95833981519152815183510890915250565b611d00828284613118565b6020810151612cbe57805115612cbb57600080fd5b50565b6020810151612cdb90600080516020613c75833981519152613bff565b602090910152565b612ceb613343565b835181526020840151816001602002015282518160026020020152600060408360608460075afa905080612d1e57600080fd5b5050505050565b8151158015612d3657506020820151155b15612d4e578251815260209283015192019190915250565b8251158015612d5f57506020830151155b15612d74578151815260209182015191015250565b612d7c613361565b8351815260208085015181830152835160408301528301518160035b6020020152600060408360808460065afa905080612d1e57600080fd5b600080516020613c958339815191528151612dde90600080516020613c95833981519152613bff565b83510890915250565b6040805160208101909152600081528151612e0157600080fd5b61068682612e1e6002600080516020613c95833981519152613bff565b612be3565b604080516020810190915260008152612e3c8284612be3565b9050610686612e4b600161083f565b8290612db5565b611d00828284612ce3565b6040805160208101909152600081526000612e78600161083f565b90506000612e86600261083f565b90506000612e94600361083f565b90506000612ea2600461083f565b9050612eae600061083f565b94506000612ebc600061083f565b90506000612eca600061083f565b90506000612ed8600061083f565b905060005b6003811015613023578b51612ef3908b90612c62565b60808b0151612f4090612f07836003613bff565b60048110612f2557634e487b7160e01b600052603260045260246000fd5b60200201516040805160208101909152600081529051815290565b9350612f4c8486612c62565b60808b0151612f6090612f07836002613bff565b9250612f6c8385612db5565b60408051602081019091526000815283518152604080516020810190915260008152845181529092509350612fa18489612db5565b612fab8285612c62565b604080516020810190915260008152835181529350612fca8488612db5565b612fd48285612c62565b604080516020810190915260008152835181529350612ff38487612db5565b612ffd8285612c62565b613007828b612c62565b6130118983612c81565b8061301b81613c2d565b915050612edd565b508a51613031908a90612c62565b60808a0151613041906000612f25565b925061304d8385612c62565b60a08a015161305d906000612f25565b91506130698284612db5565b50604080516020808201835260008083528451835283519182019093529182528251825290925061309a8388612db5565b6130a48184612c62565b6040805160208101909152600081528251815292506130c38387612db5565b6130cd8184612c62565b6040805160208101909152600081528251815292506130ec8386612db5565b6130f68184612c62565b613100818a612c62565b61310a8882612c81565b505050505050509392505050565b815115801561312957506020820151155b15613141578251815260209283015192019190915250565b825115801561315257506020830151155b156131825781518152602082015161317890600080516020613c75833981519152613bff565b6020909101525050565b61318a613361565b8351815260208085015181830152835160408301528301516131ba90600080516020613c75833981519152613bff565b816003612d98565b604051806101a00160405280606081526020016131dd61337f565b81526020016131ff604051806040016040528060008152602001600081525090565b815260200161320c61337f565b81526020016132196133a8565b81526040805180820182526000602080830182815283528085019290925282518084018452808301828152815283850152825180830184528181526060850152825180830184528181526080850152825191820190925290815260a082015260c0016132836133dc565b81526020016132a5604051806040016040528060008152602001600081525090565b81526020016132c7604051806040016040528060008152602001600081525090565b905290565b60405180604001604052806002905b60408051808201909152600080825260208201528152602001906001900390816132db5790505090565b60405180604001604052806133186133fd565b81526020016132c76133fd565b60405180602001604052806001906020820280368337509192915050565b60405180606001604052806003906020820280368337509192915050565b60405180608001604052806004906020820280368337509192915050565b6040805160c0810190915260006080820181815260a083019190915281526003602082016132db565b60405180608001604052806004905b6040805160208101909152600081528152602001906001900390816133b75790505090565b604080516080810190915260006060820190815281526002602082016133b7565b60405180604001604052806002906020820280368337509192915050565b600082601f83011261342b578081fd5b604051606081018181106001600160401b038211171561344d5761344d613c5e565b604052808360608101861015613461578384fd5b835b600381101561348b57613476878361376a565b83526020928301929190910190600101613463565b509195945050505050565b600082601f8301126134a6578081fd5b6134ae613b02565b8083856080860111156134bf578384fd5b835b60028110156134eb576134d487836137aa565b8452602090930192604091909101906001016134c1565b509095945050505050565b600082601f830112613506578081fd5b60408051608081018181106001600160401b038211171561352957613529613c5e565b82528084610100810187101561353d578485fd5b845b60048110156135665761355288836137aa565b83526020909201919084019060010161353f565b50919695505050505050565b600082601f830112613582578081fd5b6040805160e081018181106001600160401b03821117156135a5576135a5613c5e565b825280846101c081018710156135b9578485fd5b845b6007811015613566576135ce88836137aa565b8352602090920191908401906001016135bb565b600082601f8301126135f2578081fd5b6040516102008082018281106001600160401b038211171561361657613616613c5e565b6040528184828101871015613629578485fd5b8492505b601083101561348b5780358252600192909201916020918201910161362d565b600082601f83011261365d578081fd5b613665613b02565b808385604086011115613676578384fd5b835b60028110156134eb578135845260209384019390910190600101613678565b600082601f8301126136a7578081fd5b813560206136bc6136b783613b7d565b613b4d565b80838252828201915082860187848660051b89010111156136db578586fd5b855b858110156136f9578135845292840192908401906001016136dd565b5090979650505050505050565b600082601f830112613716578081fd5b813560206137266136b783613b7d565b80838252828201915082860187848660051b8901011115613745578586fd5b855b858110156136f957613758826138b8565b84529284019290840190600101613747565b60006020828403121561377b578081fd5b604051602081018181106001600160401b038211171561379d5761379d613c5e565b6040529135825250919050565b6000604082840312156137bb578081fd5b6137c3613b02565b9050813581526020820135602082015292915050565b6000608082840312156137ea578081fd5b6137f2613b02565b90506137fe838361364d565b815261380d836040840161364d565b602082015292915050565b6000610480828403121561382a578081fd5b613832613b2a565b9050813581526020820135602082015261384f836040840161376a565b60408201526138618360608401613572565b6060820152613874836102208401613496565b6080820152613887836102a084016134f6565b60a082015261389a836103a0840161341b565b60c08201526138ad8361040084016137d9565b60e082015292915050565b803560ff811681146138c957600080fd5b919050565b60008060006104c084860312156138e3578283fd5b83356001600160401b03808211156138f9578485fd5b61390587838801613697565b9450602086013591508082111561391a578384fd5b5061392786828701613697565b9250506139378560408601613818565b90509250925092565b600080600080600080600080610740898b03121561395c578586fd5b88356001600160401b0380821115613972578788fd5b61397e8c838d01613697565b995060208b0135915080821115613993578788fd5b61399f8c838d01613697565b985060408b013597506139b460608c016138b8565b965060808b01359150808211156139c9578586fd5b6139d58c838d01613706565b955060a08b01359150808211156139ea578485fd5b506139f78b828c01613697565b935050613a078a60c08b016135e2565b9150613a178a6102c08b01613818565b90509295985092959890939650565b600060208284031215613a37578081fd5b5051919050565b60008151815b81811015613a5e5760208185018101518683015201613a44565b81811115613a6c5782828601525b509290920192915050565b60006100a78284613a3e565b6000613a8f8285613a3e565b8084835b6010811015613ab2578151845260209384019390910190600101613a93565b50506102000195945050505050565b6000613acd8285613a3e565b9283525050602001919050565b6000613ae68285613a3e565b60f89390931b6001600160f81b03191683525050600101919050565b604080519081016001600160401b0381118282101715613b2457613b24613c5e565b60405290565b60405161010081016001600160401b0381118282101715613b2457613b24613c5e565b604051601f8201601f191681016001600160401b0381118282101715613b7557613b75613c5e565b604052919050565b60006001600160401b03821115613b9657613b96613c5e565b5060051b60200190565b60008219821115613bb357613bb3613c48565b500190565b600063ffffffff808316818516808303821115613bd757613bd7613c48565b01949350505050565b6000816000190483118215151615613bfa57613bfa613c48565b500290565b600082821015613c1157613c11613c48565b500390565b600081613c2557613c25613c48565b506000190190565b6000600019821415613c4157613c41613c48565b5060010190565b634e487b7160e01b600052601160045260246000fd5b634e487b7160e01b600052604160045260246000fdfe30644e72e131a029b85045b68181585d97816a916871ca8d3c208c16d87cfd4730644e72e131a029b85045b68181585d2833e84879b9709143e1f593f0000001a26469706673582212204893915bbb3f46aa992bf23b6e040862826042bc8809f6000c1e8cd889abdeb364736f6c63430008040033",
  "linkReferences": {},
  "deployedLinkReferences": {}
}